:10000000ADEF24F00000000000EF00F00000000061
:0A0010000000000000000000F3D71C
:0C001C00060E0D6E0D2EFED70000120027
:0A002800F9DF8A88F7DF8A981200DA
:06003200000000001200B6
:10003800120E006E000E016E830E0024E16E0F0E8C
:100048000120E26EFF0EE66EF0DFEFDF8A848A9809
:100058008A868A88DFDF83CF10F28A988A96E5DF5E
:10006800E4DF120E006E000E016E830E0024E16EB6
:0E0078000F0E0120E26EE66A10C200F01200C8
:0E0086008A988A848A9610C283FFCBDF12000C
:100094007F0E02011015016E01C010F201AC03D0F5
:0C00A4008A808A9202D08A908A82120020
:1000B0008A948A96B80E02011011836EB5DF120081
:1000C0007F0E02011015006E00C010F28A948A960D
:1000D000BF0E001600C010F2008C00C010F200C06D
:0600E00083FFA2DF120005
:1000E600000E02010B5D0AE30B517F0807E3000EC9
:1000F6000C5D04E30C513F0801E301D04AD00BC26A
:1001060010F2C5DF0CC210F21033109F1033109F8F
:100116001033109FCADF0BC210F2CFDF8ADF00C098
:100126000FF287DF00C00FF20CC210F21033109FDF
:100136001033109F1033109FB8DF0BC210F2BDDFD3
:10014600070E0C15006E00C000F200C001F0010E93
:10015600006E015004E000360090FF0FFBD700C090
:1001660000F2001C0E6F09D00E510F170FD0005170
:100176000F130CD000510F1B09D00D51000AF4E0EB
:100186000D51010AF4E00D51020AF4E00FC210F21B
:0401960077DF1200FD
:10019A00F250026EF29E0500FF6A0150FE6E005098
:0801AA00FD6E02BEF28E120090
:1001B20001C218F102C219F103C21AF1020E0201C0
:1001C2000125F66E000E0221F76E000E0321F86E75
:1001D2000900F5CF04F0030E0125F66E000E022190
:1001E200F76E000E0321F86E0900F5CF03F003C08D
:1001F20001F0006A045000240101216F000E012069
:10020200226F040E02010125F66E000E0221F76E26
:10021200000E0321F86E0900F5CF04F0050E01254A
:10022200F66E000E0221F76E000E0321F86E090031
:10023200F5CF03F003C001F0006A0450002401016D
:100242001E6F000E01201F6F060E02010125F66EC1
:10025200000E0221F76E000E0321F86E0900F5CFA1
:1002620023F1000E0101246F04C237F1000E386F32
:1002720005C21BF1010E0001B96F0101526B536BF4
:02028200120068
:100284000B6A0A6A096A00500402F4CF09F0F3CF3A
:1002940008F001500502F4CF0BF0F3CF0AF0005040
:1002A4000502F3500926F4500A22E86A0B22015091
:1002B4000402F3500926F4500A22E86A0B2208C00B
:1002C40000F009C001F00AC002F00BC003F01200F4
:1002D400440E0201096F010E0A6F000E006E0651F2
:1002E400005C02E1055100084CE24EC1E1FF4FC140
:1002F400E2FF01C2E6FF02C2E6FF03C2E6FF04C258
:10030400E6FF05C2E6FF06C2E6FFFE0EE66E010E3C
:10031400E66E4CC100F04DC101F03DDF00C007F2B4
:1003240001C008F20101FC6BFD6BFF51FD5D02E1B0
:10033400FE51FC5D13E207C2E9FF08C2EAFF09C2ED
:10034400E1FF0AC2E2FFEECFE6FF0201094B0A2BEE
:10035400074B082B0101FC4BFD2BE7D7FE51020193
:10036400055F0101FF510201065B0101FE5102011B
:1003740001270101FF5102010223000E032304237C
:04038400ACD71200E0
:080388000AAE029E000E1200F5
:10039000020E0101FC2502010B6FFDC10CF2010EE2
:1003A0000D6FA1DE020E0101FC2502010B6F020E92
:1003B0000101FD2502010C6F010E0D6F94DE040E8C
:1003C0000101FC2502010B6F040E0101FD25020154
:1003D0000C6F010E0D6F87DEFCC10BF2040E0101E4
:0E03E000FD2502010C6F010E0D6F7DDE120077
:0E03EE00026A016A006A086A036A000E1200C1
:1003FC000B840BAE09EF02F0010E036E026A016A68
:0A040C00006A0A360232FF0E1200E9
:10041600E2C135F1E3C136F1E4C11CF1E5C11DF1DC
:020426001200C2
:100428000C6A0E6A0250D8A42DEF02F001C002F047
:1004380000C001F0006A0E860250D8A42DEF02F029
:1004480001C002F0016A0E960E880250D8B43FEF40
:1004580002F00E50035ED8A4D8A044EF02F0D89062
:1004680002BE49EF02F0003601360236032E34EFA1
:1004780002F044EF02F0010E0C6EB5DF4CEF02F013
:10048800020E0C6EB7DF4CEF02F0040E0C6E78DF34
:02049800120050
:10049A000A6A0350D8A40A800750D8A40A820A50CC
:1004AA00D8B4B0EF02F0030AD8B469EF02F00AB088
:1004BA0064EF02F006AEAEEF02F0ACEF02F002AE6D
:1004CA00ACEF02F0AEEF02F00250800B0A6E029E11
:1004DA000650800B069E0A18D8B47AEF02F00A502A
:1004EA00D8B4ACEF02F0AEEF02F00750035CD8B418
:1004FA0084EF02F0D8A0A0EF02F0A6EF02F00650B7
:10050A00025CD8B48EEF02F0D8A0A0EF02F0A6EFFA
:10051A0002F00550015CD8B498EF02F0D8A0A0EF21
:10052A0002F0A6EF02F00450005CD8B4B0EF02F07B
:10053A00D8B0A6EF02F00A52D8B4AEEF02F0ACEF90
:10054A0002F00A52D8B4ACEF02F0AEEF02F0D88053
:0E055A001200D8901200D880D884120012002F
:100568000101F76BF86BF96BFA6B2251E35D02E15D
:100578002151E25D01E2BFD1E3511F5D02E1E25189
:100588001E5D01E2B8D12151E25D036E2251E359AB
:10059800046E03C000F004C001F00036009001367C
:1005A800003600900136080E39250201016F000E51
:1005B80001013A210201026F000E01013B210201F3
:1005C800036F000E01013C210201046F0050012756
:1005D80001500223000E03230423040E056F000EAE
:1005E800066F74DE440E0101F56F010EF66FF5C15A
:1005F800E9FFF6C1EAFFEECFFBF1FBC1F7F1010E0F
:10060800F525E96E000EF621EA6EEECF04F0000E35
:10061800056E066E076E020EF525E96E000EF621D0
:10062800EA6EEECF03F003C001F0006A000E026E1E
:10063800036E04500026055001220650022207507E
:10064800032200503925E96F01503A21EA6F025020
:100658003B21EB6F03503C21EC6FFBC100F00032F3
:10066800009E0032009E0032009E000E016E23C1E3
:1006780004F024C105F002DE00C0EFF101C0F0F182
:10068800070EFB15006E04E02351EF272451F023D9
:10069800EFC1F3F1F0C1F4F14EC1E1FF4FC1E2FF48
:1006A800E9C1E6FFEAC1E6FFEBC1E6FFECC1E6FF00
:1006B800EFC1E6FFF0C1E6FFED0EE66E010EE66E55
:1006C8004CC100F04DC101F064DD00C0F5F101C07E
:1006D800F6F10101ED51E927EE51EA23000EEB2373
:1006E800EC23ED51EF5FEE51F05BF16BF26B1B51B8
:1006F800000AD8A47FD01CC1E6F11DC1E7F1E56B63
:10070800000E006E2451005C02E12351E55D6BE2AE
:1007180035C1F8F136C1F9F1E86BE46BF751E45DE6
:100728005EE2E851000A49E1F14BF22BF451EE5D2B
:1007380002E1F351ED5D37E2F251EE5D02E1F15174
:10074800ED5D31E2010EF16F000EF26F4EC1E1FF77
:100758004FC1E2FFE9C1E6FFEAC1E6FFEBC1E6FFF0
:10076800ECC1E6FFEFC1E6FFF0C1E6FFED0EE66E75
:10077800010EE66E4CC100F04DC101F00ADD00C06B
:10078800F5F101C0F6F1EFC1F3F1F0C1F4F10101A7
:10079800ED51E927EE51EA23000EEB23EC23ED514E
:1007A800EF5FEE51F05BF5C1E9FFF6C1EAFFEECF6E
:1007B800FAF1F54BF62B010EE86FE851FA15006EC9
:1007C80007E0F8C10BF2E6C10CF237C10DF287DC85
:1007D8000101F84BF92BE837E891E42B9FD7E64B5A
:1007E800E72BE52B8DD7010EF825356F000EF92183
:1007F800366F81D035C1E6F136C1E7F1E56B000E01
:10080800006E2451005C02E12351E55DD8B06DD043
:100818001CC1F8F11DC1F9F1E86BE46BF751E45D17
:1008280060E2E851000A49E1F14BF22BF451EE5D28
:1008380002E1F351ED5D37E2F251EE5D02E1F15173
:10084800ED5D31E2010EF16F000EF26F4EC1E1FF76
:100858004FC1E2FFE9C1E6FFEAC1E6FFEBC1E6FFEF
:10086800ECC1E6FFEFC1E6FFF0C1E6FFED0EE66E74
:10087800010EE66E4CC100F04DC101F08ADC00C0EB
:10088800F5F101C0F6F1EFC1F3F1F0C1F4F10101A6
:10089800ED51E927EE51EA23000EEB23EC23ED514D
:1008A800EF5FEE51F05BF5C1E9FFF6C1EAFFEECF6D
:1008B800FAF1F54BF62B010EE86FE851FA15006EC8
:1008C80007E0E6C10BF2F8C10CF237C10DF207DC04
:1008D800010E0101F85F000EF95BE837E891E42B9F
:1008E8009DD7E64BE72BE52B8AD7010EF85D1C6FE9
:0808F800000EF9591D6F1200FA
:100900000101EA6BEB6BEC6B0001B951000A0EE1DF
:100910009C0E0201016F4F0E026F000E036F010E5D
:10092000046F056B46DC010E0001B96F000E006E0E
:1009300001012251005C02E12151E25D01E2EAD0B5
:10094000000E1F5D02E1E2511E5D01E2E3D0215184
:10095000E25D016E22C102F0000E025601C003F0FA
:1009600002C004F0033603900436033603900436C5
:10097000080E1825006E000E1921016E000E1A21B6
:10098000026E000E056E0050032601500422025034
:10099000052203C0F6FF04C0F7FF05C0F8FF0900F9
:1009A000F5CFEAF1010E0324F66E000E0420F76E77
:1009B000000E0520F86E0900F5CF00F000C006F02B
:1009C000000E076E086E096E020E0324F66E000E0E
:1009D0000420F76E000E0520F86E0900F5CF03F035
:1009E00003C001F0006A000E026E036E065000267E
:1009F00007500122085002220950032218510024F6
:100A0000E76F19510120E86F1A510220E96F1B515D
:100A1000000A41E11CC1E5F1E46B000E006E2451B7
:100A2000005C02E12351E45D2FE235C1EBF1E66B9E
:100A3000E36BEA51E35D25E2E651000A10E1E7C10C
:100A4000F6FFE8C1F7FFE9C1F8FF0900F5CFECF1C7
:100A5000010EE727000EE823E923010EE66FE651B9
:100A6000EC15006E08E0EBC10BF2E5C10CF237C1EA
:100A70000DF273EC00F00101EB2BE637E691E32B6E
:100A8000D8D7E52BE42BC9D7EB51010F356F366B67
:100A9000000E36233FD035C1E5F1E46B000E006E49
:100AA0002451005C02E12351E45D2FE21CC1EBF113
:100AB000E66BE36BEA51E35D25E2E651000A10E1E3
:100AC000E7C1F6FFE8C1F7FFE9C1F8FF0900F5CF7C
:100AD000ECF1010EE727000EE823E923010EE66F93
:100AE000E651EC15006E08E0E5C10BF2EBC10CF22B
:100AF00037C10DF273EC00F00101EB07E637E69128
:100B0000E32BD8D7E52BE42BC9D7EB051C6F1D6B66
:060B1000000E1D5B120047
:100B16000101E451070801E296D05451E25D006EEE
:100B260055C101F0000E015650C104F0000E056ECD
:100B360042EC01F000C0EAF101C0EBF1E3C110F2B2
:100B460060EC00F0E4C110F258EC00F00101E66B35
:100B56005051E65D53E2E3517F0801E274D0E3C1F0
:100B660010F24AEC00F0E4C110F258EC00F0E3C1D8
:100B760010F260EC00F01CEC00F000C0E7F11CEC99
:100B860000F000C0E7F1E3C110F24AEC00F0E4C166
:100B960010F258EC00F0E3C110F260EC00F0010135
:100BA600EA514125F66EEB514221F76E000EEBBF7E
:100BB600FF0E4321F86E0900F5CF00F000C0E8F102
:100BC600EA4BEB2B001CE96F09D0E9C1E7F10FD026
:100BD600E8C1E7F10CD0E851E71B09D0E551000A5E
:100BE600F4E0E551010AF4E0E551020AF4E0E7C158
:100BF60010F243EC00F0E32BE62BAAD7E3C110F288
:100C06004AEC00F0E4C110F258EC00F0E3C110F237
:100C160060EC00F0FF0E0101E86FE96B0ED0E8C151
:100C2600E7F1E8C110F243EC00F00DD0E9C1E7F1BD
:100C3600E9C110F243EC00F006D0E551000AEFE0FE
:080C4600E551010AF3E0120080
:0E0C4E00ACB202D00000FCD7E2C1ADFF120034
:100C5C000B800BAE3AEF06F0026A0AAEFF0E026E84
:0C0C6C00016E006E0A360232FF0E12000C
:100C78002A0E0101A76F3B0EA86F030EA96F040E81
:100C8800AA6F520EAB6F3B0EAC6F030EAD6F040E26
:100C9800AE6F2A0EFC6F3B0EFD6FC8EC01F0ABC1C6
:0C0CA800FCF1ACC1FDF1C8EC01F0120041
:100CB400020E0101E22502010B6FE3C10CF20D6B80
:100CC40073EC00F0020E0101E22502010B6F020E2B
:100CD4000101E32502010C6F0D6B73EC00F0040EAF
:100CE4000101E22502010B6F040E0101E32502015B
:100CF4000C6F0D6B73EC00F0E2C10BF2040E0101FA
:0E0D0400E32502010C6F0D6B73EC00F0120082
:0A0D1200000EACB2010E006E1200DC
:100D1C000101DA51000AD8A4A6D0DBC100F0000E04
:100D2C00016E003600900136003600900136A70E99
:100D3C000026010E0122010E0024E96E000E012096
:100D4C00EA6EEECF03F0030E0024D96E000E0120E4
:100D5C00DA6EDE503F08016E026A000E025A800EF7
:100D6C00006E800E0218005C02E10150035C3DE352
:100D7C00DBC100F0000E016E00360090013600362B
:100D8C0000900136A70E0026010E012200C0E9FFDB
:100D9C0001C0EAFFEECFE2F1010E0024E96E000E75
:100DAC000120EA6EEECFE3F17FDFDBC100F0000E35
:100DBC00016E003600900136003600900136A70E09
:100DCC000026010E0122010E0024E16E000E01200E
:100DDC00E26E030E0024D96E000E0120DA6EDE5096
:100DEC003F08006E00C0E6FF3ED0DBC100F0000EF5
:100DFC00016E003600900136003600900136A70EC9
:100E0C000026010E012200C0E9FF01C0EAFFEECF6F
:100E1C00E2F1010E0024E96E000E0120EA6EEECF25
:100E2C00E3F142DFDBC100F0000E016E00360090F2
:100E3C000136003600900136A70E0026010E012265
:100E4C00010E0024026E000E0120036E02C0E9FFA9
:100E5C0003C0EAFF020EEE24006E02C0E1FF03C0E5
:100E6C00E2FF00C0E6FF0101DA51010AD8A4A1D0CB
:100E7C00DBC100F0000E016E00360090013600362A
:100E8C0000900136A70E0026010E0122010E00244F
:100E9C00E96E000E0120EA6EEE5001084CE3DBC156
:100EAC0000F0000E016E0036009001360036009006
:100EBC000136A70E0026010E012200C0E9FF01C079
:100ECC00EAFFEECFE2F1010E0024E96E000E0120E4
:100EDC00EA6EEECFE3F1E8DEDBC100F0000E016E4E
:100EEC00003600900136003600900136A70E002621
:100EFC00010E0122010E0024E16E000E0120E26EB3
:100F0C003B0EE66EF50E016E000E026E0101DB511A
:100F1C000126D8B0022A01C0E9FF02C0EAFFEE5058
:100F2C00010F006E01C0E1FF02C0E2FF00C0E6FF4E
:100F3C000001F46B3ED0DBC100F0000E016E0036F8
:100F4C0000900136003600900136A70E0026010EE7
:100F5C00012200C0E9FF01C0EAFFEECFE2F1010E71
:100F6C000024E96E000E0120EA6EEECFE3F19CDE68
:100F7C00DBC100F0000E016E003600900136003629
:100F8C0000900136A70E0026010E0122010E00244E
:100F9C00026E000E0120036E02C0E9FF03C0EAFFDF
:100FAC00020EEE5C006E02C0E1FF03C0E2FF00C067
:040FBC00E6FF12003A
:100FC000046A056A066A076ADAC100F0DBC101F04B
:100FD000DCC102F0DDC103F04DEC02F0010ED8B02F
:100FE000000E006E00520EE0000E0101DA19006ED4
:100FF000000EDB19016E800EDC19026E000EDD1989
:10100000036E08D0DAC100F0DBC101F0DCC102F0F0
:06101000DDC103F0120037
:101016000101E151010A23E1800EDEBF7F0E006E61
:10102600800E005C02E1DA51DE5D19E3040EDA257A
:10103600016E026A000E0222800EDEBF7F0E006E77
:10104600800E0218005C02E10150DE5D08E2DAC1A2
:10105600E2F1DBC1E3F12BDE0CDE0001F46B1200E2
:10106600000E0101DD5D02E1800EDC5D01E33BD097
:10107600000EDF5D02E1400EDE5D01E334D0E06B81
:10108600E16BDCC1E2F1DDC1E3F1DEC1E4F1DFC118
:10109600E5F10BEC02F0E051DA25E96EE151DB21D6
:1010A600EA6EEE5220E05251531111E0E051DA257A
:1010B600E96EE151DB21EA6EEECFE2F1000EE36F5D
:1010C600000EE36FB4EC02F0E04BE12B0BD0E051E5
:1010D600DA25E96EE151DB21EA6EEECFE2F10DDCB5
:0810E600E04BE12BD8D712000A
:1010EE000101DD6BDAC1E9FFDBC1EAFFEECFDCF116
:1010FE00DC51000A0EE0DCC1E2F1A2DD0101DD2BC4
:10110E00DD51DA25E96E000EDB21EA6EEECFDCF161
:04111E00EFD71200F5
:0C1122000E0E0D6E0D2EFED70000120008
:10112E000101DE6BDF6BE06BDE51070849E3020164
:10113E00106B4AEC00F0DEC110F258EC00F0106BB0
:10114E0060EC00F00101DD6BDD513F0812E3DF5171
:10115E00DA25F66EE051DB21F76E000EDC21F86E1B
:10116E000900F5CF10F243EC00F0DF4BE02BDD2B46
:10117E00EBD7400E0201106F4AEC00F0DEC110F208
:10118E0058EC00F0400E106F60EC00F0400E0101C4
:10119E00DD6FDD517F0812E3DF51DA25F66EE05187
:1011AE00DB21F76E000EDC21F86E0900F5CF10F290
:1011BE0043EC00F0DF4BE02BDD2BEBD7DE2BB4D76F
:0211CE0012000D
:1011D0000101DF6B5151000A0EE1050E506F070E41
:1011E000206F4F0E416F610E426F000E436F200E55
:1011F000546F000E556FDF51DA25E96E000EDB21CA
:10120000EA6EEE5216E0DF51DA25E96E000EDB21C0
:10121000EA6EEECFE2F1DCC1E3F1DDC1E4F1DEC163
:10122000E5F179DC5051010F006E0050DC27DF2B17
:04123000E2D71200EF
:101234000B6A0350D8B460EF09F002500A6E028EB4
:101244008E0E035E03AE64EF09F0036C080E035CBC
:10125400D8A03FEF09F0036E013602C001F0026A24
:10126400080E035CD8A03FEF09F0036E0136016A53
:101274000350D8A4D89049EF09F00350D8B449EFEB
:1012840009F0D89002320132032E43EF09F00BBC6F
:1012940001A056EF09F0D8A056EF09F0012AD8B4FE
:1012A400022A02BE73EF09F00AAE78EF09F0021EBB
:1012B400011E012AD8B4022A78EF09F0026A016AF1
:1012C40078EF09F00B800BAE7CEF09F0026A0AAEEE
:1012D4007CEF09F0FF0E026E016E0A3602327CEFDB
:1012E40009F0010E0C6EB8DC7EEF09F0000E0C6EF6
:1012F4007EEF09F0FF0E0C6E0150006E0250016E7D
:021304001200D5
:101306000101DA6B040EDA5D72E2030E006E000E66
:10131600016EDAC104F0000E056E42EC01F0770EA4
:101326000024E96E010E0120EA6EEECF01F00150B5
:10133600400A21E0030E006E000E016EDAC104F0D1
:10134600000E056E42EC01F0770E0026010E01221A
:1013560000C0E9FF01C0EAFFEECF0BF2010E002448
:10136600E96E000E0120EA6EEECF0CF2010E0201CC
:101376000D6F73EC00F0030E006E000E016EDAC105
:1013860004F0000E056E42EC01F0770E0026010E09
:101396000122020E0024E96E000E0120EA6EEE50D4
:1013A600400A22E00201030E006E000E016EDAC151
:1013B60004F0000E056E42EC01F0770E0026010ED9
:1013C6000122020E0024E96E000E0120EA6EEECF25
:1013D6000BF2010E0024E96E000E0120EA6EEECF3C
:1013E6000CF20D6B73EC00F00101DA2B8BD7DA6B84
:1013F600040EDA5D72E2030E006E000E016EDAC1B3
:1014060004F0000E056E42EC01F08F0E0024E96E2A
:10141600010E0120EA6EEECF01F00150400A21E0F4
:10142600030E006E000E016EDAC104F0000E056EAA
:1014360042EC01F08F0E0026010E012200C0E9FFEA
:1014460001C0EAFFEECF0BF2010E0024E96E000E9A
:101456000120EA6EEECF0CF2010E02010D6F73EC65
:1014660000F0030E006E000E016EDAC104F0000EED
:10147600056E42EC01F08F0E0026010E0122020ECF
:101486000024E96E000E0120EA6EEE50400A22E0CA
:101496000201030E006E000E016EDAC104F0000EAA
:1014A600056E42EC01F08F0E0026010E0122020E9F
:1014B6000024E96E000E0120EA6EEECF0BF2010E5B
:1014C6000024E96E000E0120EA6EEECF0CF20D6BE1
:1014D60073EC00F00101DA2B8BD7DA6B040EDA5DC0
:1014E60072E2030E006E000E016EDAC104F0000E09
:1014F600056E42EC01F05F0E0024E96E010E01203C
:10150600EA6EEECF01F00150400A21E0030E006EB4
:10151600000E016EDAC104F0000E056E42EC01F019
:101526005F0E0026010E012200C0E9FF01C0EAFF9E
:10153600EECF0BF2010E0024E96E000E0120EA6EDA
:10154600EECF0CF2010E02010D6F73EC00F0030EEC
:10155600006E000E016EDAC104F0000E056E42EC5C
:1015660001F05F0E0026010E0122020E0024E96E34
:10157600000E0120EA6EEE50400A22E00201030E40
:10158600006E000E016EDAC104F0000E056E42EC2C
:1015960001F05F0E0026010E0122020E0024E96E04
:1015A600000E0120EA6EEECF0BF2010E0024E96E6A
:1015B600000E0120EA6EEECF0CF20D6B73EC00F01C
:1015C6000101DA2B8BD7DA6B040EDA5D72E2030EB9
:1015D600006E000E016EDAC104F0000E056E42ECDC
:1015E60001F09B0E0024E96E010E0120EA6EEECF9B
:1015F60001F00150400A21E0030E006E000E016E5C
:10160600DAC104F0000E056E42EC01F09B0E0026D6
:10161600010E012200C0E9FF01C0EAFFEECF0BF286
:10162600010E0024E96E000E0120EA6EEECF0CF2E8
:10163600010E02010D6F73EC00F0030E006E000E3A
:10164600016EDAC104F0000E056E42EC01F09B0E4D
:101656000026010E0122020E0024E96E000E012072
:10166600EA6EEE50400A22E00201030E006E000E02
:10167600016EDAC104F0000E056E42EC01F09B0E1D
:101686000026010E0122020E0024E96E000E012042
:10169600EA6EEECF0BF2010E0024E96E000E012079
:1016A600EA6EEECF0CF20D6B73EC00F00101DA2B53
:1016B6008BD7DA6B040EDA5D72E2030E006E000E53
:1016C600016EDAC104F0000E056E42EC01F0C40EA4
:1016D6000024E96E010E0120EA6EEECF01F0015002
:1016E600400A21E0030E006E000E016EDAC104F01E
:1016F600000E056E42EC01F0C40E0026010E01221A
:1017060000C0E9FF01C0EAFFEECF0BF2010E002494
:10171600E96E000E0120EA6EEECF0CF2010E020118
:101726000D6F73EC00F0030E006E000E016EDAC151
:1017360004F0000E056E42EC01F0C40E0026010E08
:101746000122020E0024E96E000E0120EA6EEE5020
:10175600400A22E00201030E006E000E016EDAC19D
:1017660004F0000E056E42EC01F0C40E0026010ED8
:101776000122020E0024E96E000E0120EA6EEECF71
:101786000BF2010E0024E96E000E0120EA6EEECF88
:101796000CF20D6B73EC00F00101DA2B8BD7DA6BD0
:1017A600040EDA5D64E2030E006E000E016EDAC10D
:1017B60004F0000E056E42EC01F0830E0024E96E83
:1017C600010E0120EA6EEECF01F00150400A19E049
:1017D600030E006E000E016EDAC104F0000E056EF7
:1017E60042EC01F0830E0024E96E010E0120EA6E40
:1017F600EECF0BF2060E02010C6F010E0D6F73ECAD
:1018060000F0030E006E000E016EDAC104F0000E49
:10181600056E42EC01F0830E0026010E0122020E37
:101826000024E96E000E0120EA6EEE50400A1CE02C
:101836000201030E006E000E016EDAC104F0000E06
:10184600056E42EC01F0830E0026010E0122020E07
:101856000024E96E000E0120EA6EEECF0BF2060EB2
:101866000C6F0D6B73EC00F00101DA2B99D7DA6B74
:10187600030EDA5D64E2030E006E000E016EDAC13D
:1018860004F0000E056E42EC01F0560E0024E96EDF
:10189600010E0120EA6EEECF01F00150400A19E078
:1018A600030E006E000E016EDAC104F0000E056E26
:1018B60042EC01F0560E0024E96E010E0120EA6E9C
:1018C600EECF0BF2100E02010C6F010E0D6F73ECD2
:1018D60000F0030E006E000E016EDAC104F0000E79
:1018E600056E42EC01F0560E0026010E0122020E94
:1018F6000024E96E000E0120EA6EEE50400A1CE05C
:101906000201030E006E000E016EDAC104F0000E35
:10191600056E42EC01F0560E0026010E0122020E63
:101926000024E96E000E0120EA6EEECF0BF2100ED7
:101936000C6F0D6B73EC00F00101DA2B99D7DA6BA3
:10194600040EDA5D64E2030E006E000E016EDAC16B
:1019560004F0000E056E42EC01F06B0E0024E96EF9
:10196600010E0120EA6EEECF01F00150400A19E0A7
:10197600030E006E000E016EDAC104F0000E056E55
:1019860042EC01F06B0E0024E96E010E0120EA6EB6
:10199600EECF0BF21C0E02010C6F010E0D6F73ECF5
:1019A60000F0030E006E000E016EDAC104F0000EA8
:1019B600056E42EC01F06B0E0026010E0122020EAE
:1019C6000024E96E000E0120EA6EEE50400A1CE08B
:1019D6000201030E006E000E016EDAC104F0000E65
:1019E600056E42EC01F06B0E0026010E0122020E7E
:1019F6000024E96E000E0120EA6EEECF0BF21C0EFB
:101A06000C6F0D6B73EC00F00101DA2B99D7DA6BD2
:101A1600030EDA5D64E2030E006E000E016EDAC19B
:101A260004F0000E056E42EC01F0AF0E0024E96EE4
:101A3600010E0120EA6EEECF01F00150400A19E0D6
:101A4600030E006E000E016EDAC104F0000E056E84
:101A560042EC01F0AF0E0024E96E010E0120EA6EA1
:101A6600EECF0BF2280E02010C6F010E0D6F73EC18
:101A760000F0030E006E000E016EDAC104F0000ED7
:101A8600056E42EC01F0AF0E0026010E0122020E99
:101A96000024E96E000E0120EA6EEE50400A1CE0BA
:101AA6000201030E006E000E016EDAC104F0000E94
:101AB600056E42EC01F0AF0E0026010E0122020E69
:101AC6000024E96E000E0120EA6EEECF0BF2280E1E
:101AD6000C6F0D6B73EC00F00101DA2B99D7DA6B02
:101AE600040EDA5D64E2030E006E000E016EDAC1CA
:101AF60004F0000E056E42EC01F0B80E0024E96E0B
:101B0600010E0120EA6EEECF01F00150400A19E005
:101B1600030E006E000E016EDAC104F0000E056EB3
:101B260042EC01F0B80E0024E96E010E0120EA6EC7
:101B3600EECF0BF2310E02010C6F010E0D6F73EC3E
:101B460000F0030E006E000E016EDAC104F0000E06
:101B5600056E42EC01F0B80E0026010E0122020EBF
:101B66000024E96E000E0120EA6EEE50400A1CE0E9
:101B76000201030E006E000E016EDAC104F0000EC3
:101B8600056E42EC01F0B80E0026010E0122020E8F
:101B96000024E96E000E0120EA6EEECF0BF2310E44
:101BA6000C6F0D6B73EC00F00101DA2B99D7120064
:101BB60000C008F00150006E016A026A036A0B6AEF
:101BC6000C6A016A026A036A960E036E0A6A00AE1E
:101BD600F3EF0DF0081E001E082AD8B4002A0A8E5C
:101BE60000C001F008C000F0086A026A14EC02F0B6
:021BF6001200DB
:101BF8000101516B526B536B939A939893949396FC
:101C0800939093928A9A120E006E000E016E830EC4
:101C18000024E16E0F0E0120E26EE66A8A948A962D
:101C28008A908A828A8A3F0E836E14EC00F0C00E76
:101C3800836E14EC00F08A808A923F0E836E14EC57
:0C1C480000F0C00E836E14EC00F01200DF
:101C54000900F5CFE6FF0006FBE10106F9E11200F9
:101C6400FF0E01013D6FFF0E3E6FFF0E3F6FFF0E33
:101C7400406FC26A0001E61D006E0050C116070ED7
:081C8400C012C08EC2801200E4
:101C8C004E0E0101316F0C0E326FE20E336F010EEE
:101C9C00346FE20E256F1D0E266F000E276F000E9F
:101CAC00286FB40E296F280E2A6F000E2B6F000EB2
:101CBC002C6F120E2D6F0D0E2E6F000E2F6F000E4F
:101CCC00306FAC8A900EAB6E948E949C9EAA03D00F
:081CDC00AECF00F0FBD71200AF
:101CE4008A908A820101D56BD551070811E3D5C1C9
:101CF40010F258EC00F00101D46BD4513F0806E314
:101D0400D3C110F243EC00F0D42BF7D7D52BECD78A
:101D14008A928A80D56BD551070811E3D5C110F298
:101D240058EC00F00101D46BD4513F0806E3D3C151
:101D340010F243EC00F0D42BF7D7D52BECD71200DC
:101D44004F0E0101DA6F550EDB6F000EDC6F97EC5E
:101D540008F0590EDA6F000EDB6F040EDC6F000E14
:101D6400DD6F150EDE6F000EDF6F33EC08F0690EC9
:101D7400DA6F000EDB6F040EDC6F000EDD6F1F0EDA
:101D8400DE6F000EDF6F33EC08F07E0EDA6F000EAC
:101D9400DB6F040EDC6F000EDD6F2A0EDE6F000EAB
:101DA400DF6F33EC08F09B0EDA6F000EDB6F040E6E
:101DB400DC6F000EDD6F340EDE6F000EDF6F33EC70
:101DC40008F01F0E0B6E710E0C6E1E0E0D6E0D2E96
:0E1DD400FED70C2EFCD70B2EFAD70000120003
:101DE200AECF01F0ABA202D0AB98AB8801C000F03D
:021DF2001200DD
:101DF40015C00FF1300E0101AC25106F16C011F1A2
:101E0400300E0001F4250101126F300EA825136F66
:101E1400300E0001F6250101146F300E0001F52586
:0C1E24000101156F1FC016F1176B1200B2
:101E30000101D46BD56BE70ED66F030ED76FE70E9B
:101E4000D86F030ED96F0001E751060AD8A459EFE5
:101E500014F0040E0101A825016E026A000E022290
:101E6000800E006E800E0218005C02E101503808FE
:101E700065E2D36B040ED35D3CE2030E006E000EF0
:101E8000016ED3C104F0000E056E42EC01F0C40EE9
:101E90000024D96E010E0120DA6EDECF00F0005072
:101EA0002C08006E016A000E00BEFF0E015A83DE90
:101EB00000C0DAF101C0DBF102C0DCF103C0DDF1EA
:101EC000E0EC07F01AEC09F000C0D4F101C0D5F144
:101ED000800E0118026E800E0101D719025C02E12A
:101EE000D651005C04E2D4C1D6F1D5C1D7F1D32BD1
:101EF000C1D7800ED719006E800E005C02E1080E7B
:101F0000D65D1AE3040EA825016E026A000E0222B5
:101F1000800E006E800E0218005C02E1015038084D
:101F20000BE2010EDA6FDB6B8EEC06F0A7C1FCF161
:101F3000A8C1FDF1C8EC01F059EF14F0380E010111
:101F4000A85DD8B074D0040EA825016E026A000EF8
:101F50000222800E006E800E0218005C02E1015029
:101F6000300865E2D36B040ED35D3CE2030E006ED5
:101F7000000E016ED3C104F0000E056E42EC01F0BC
:101F8000B80E0024D96E010E0120DA6EDECF00F00B
:101F900000502C08006E016A000E00BEFF0E015AB0
:101FA0000ADE00C0DAF101C0DBF102C0DCF103C0DF
:101FB000DDF1E0EC07F01AEC09F000C0D4F101C04B
:101FC000D5F1800E0118026E800E0101D719025C56
:101FD00002E1D651005C04E2D4C1D6F1D5C1D7F1FB
:101FE000D32BC1D7800ED719006E800E005C02E1A2
:101FF000080ED65D1AE3040EA825016E026A000ED3
:102000000222800E006E800E0218005C02E1015078
:1020100030080BE2010EDA6FDB6B8EEC06F0A7C125
:10202000FCF1A8C1FDF1C8EC01F059EF14F0300E3D
:102030000101A85DD8B0BDD0040EA825016E026ACA
:10204000000E0222800E006E800E0218005C02E17B
:1020500001502808D8B0ADD0D36B030ED35D3CE25D
:10206000030E006E000E016ED3C104F0000E056E6B
:1020700042EC01F0AF0E0024D96E010E0120DA6EA1
:10208000DECF00F000502C08006E016A000E00BE8A
:10209000FF0E015A90DD00C0DAF101C0DBF102C091
:1020A000DCF103C0DDF1E0EC07F01AEC09F000C050
:1020B000D4F101C0D5F1800E0118026E800E01012D
:1020C000D719025C02E1D651005C04E2D4C1D6F11A
:1020D000D5C1D7F1D32BC1D7D36B040ED35D3CE26E
:1020E000030E006E000E016ED3C104F0000E056EEB
:1020F00042EC01F09B0E0024D96E010E0120DA6E35
:10210000DECF00F000502C08006E016A000E00BE09
:10211000FF0E015A50DD00C0DAF101C0DBF102C050
:10212000DCF103C0DDF1E0EC07F01AEC09F000C0CF
:10213000D4F101C0D5F1800E0118026E800E0101AC
:10214000D919025C02E1D851005C04E2D4C1D8F193
:10215000D5C1D9F1D32BC1D7800ED719006E800E0F
:10216000005C02E1080ED65D23E3800ED919006EF3
:10217000800E005C02E10B0ED85D1AE3040EA82568
:10218000016E026A000E0222800E006E800E02189E
:10219000005C02E1015028080BE2010EDA6FDB6BF4
:1021A0008EEC06F0A7C1FCF1A8C1FDF1C8EC01F06E
:1021B00080D3280E0101A85DD8B0B4D0040EA825A4
:1021C000016E026A000E0222800E006E800E02185E
:1021D000005C02E101502308D8B0A4D0D36B040EF8
:1021E000D35D3CE2030E006E000E016ED3C104F01D
:1021F000000E056E42EC01F09B0E0024D96E010E1C
:102200000120DA6EDECF00F000502C08006E016A6B
:10221000000E00BEFF0E015ACEDC00C0DAF101C094
:10222000DBF102C0DCF103C0DDF1E0EC07F01AECF9
:1022300009F000C0D4F101C0D5F1800E0118026E82
:10224000800E0101D719025C02E1D651005C04E264
:10225000D4C1D6F1D5C1D7F1D32BC1D7D36B040EDE
:10226000D35D3CE2030E006E000E016ED3C104F09C
:10227000000E056E42EC01F06B0E0024D96E010ECB
:102280000120DA6EDECF00F000502C08006E016AEB
:10229000000E00BEFF0E015A8EDC00C0DAF101C054
:1022A000DBF102C0DCF103C0DDF1E0EC07F01AEC79
:1022B00009F000C0D4F101C0D5F1800E0118026E02
:1022C000800E0101D919025C02E1D851005C04E2E0
:1022D000D4C1D8F1D5C1D9F1D32BC1D7800ED7192C
:1022E000006E800E005C02E1080ED65D1AE3040E5B
:1022F000A825016E026A000E0222800E006E800E7A
:102300000218005C02E1015023080BE2010EDA6FB3
:10231000DB6B8EEC06F0A7C1FCF1A8C1FDF1C8ECA7
:1023200001F0C7D2230E0101A85DD8B073D0040E0E
:10233000A825016E026A000E0222800E006E800E39
:102340000218005C02E101501C0864E2D36B040E29
:10235000D35D3CE2030E006E000E016ED3C104F0AB
:10236000000E056E42EC01F06B0E0024D96E010EDA
:102370000120DA6EDECF00F000502C08006E016AFA
:10238000000E00BEFF0E015A16DC00C0DAF101C0DB
:10239000DBF102C0DCF103C0DDF1E0EC07F01AEC88
:1023A00009F000C0D4F101C0D5F1800E0118026E11
:1023B000800E0101D719025C02E1D651005C04E2F3
:1023C000D4C1D6F1D5C1D7F1D32BC1D7800ED7193F
:1023D000006E800E005C02E1080ED65D1AE3040E6A
:1023E000A825016E026A000E0222800E006E800E89
:1023F0000218005C02E101501C080BE2010EDA6FCA
:10240000DB6B8EEC06F0A7C1FCF1A8C1FDF1C8ECB6
:1024100001F04FD21C0E0101A85DD8B074D0040E9B
:10242000A825016E026A000E0222800E006E800E48
:102430000218005C02E10150150865E2D36B040E3E
:10244000D35D3DE2030E006E000E016ED3C104F0B9
:10245000000E056E42EC01F05F0E0024D96E010EF5
:102460000120DA6EDECF00F000502C08006E016A09
:10247000000E00BEFF0E015ADBEC0DF000C0DAF1D9
:1024800001C0DBF102C0DCF103C0DDF1E0EC07F0DC
:102490001AEC09F000C0D4F101C0D5F1800E01188A
:1024A000026E800E0101D719025C02E1D651005C78
:1024B00004E2D4C1D6F1D5C1D7F1D32BC0D7800E59
:1024C000D719006E800E005C02E1080ED65D1AE39B
:1024D000040EA825016E026A000E0222800E006E14
:1024E000800E0218005C02E1015015080BE2010E9B
:1024F000DA6FDB6B8EEC06F0A7C1FCF1A8C1FDF131
:10250000C8EC01F0D6D1150E0101A85DD8B074D089
:10251000040EA825016E026A000E0222800E006ED3
:10252000800E0218005C02E10150100865E2D36BD6
:10253000040ED35D3DE2030E006E000E016ED3C1AA
:1025400004F0000E056E42EC01F0560E0024D96E28
:10255000010E0120DA6EDECF00F000502C08006E74
:10256000016A000E00BEFF0E015ADBEC0DF000C048
:10257000DAF101C0DBF102C0DCF103C0DDF1E0EC17
:1025800007F01AEC09F000C0D4F101C0D5F1800EBB
:102590000118026E800E0101D719025C02E1D651CA
:1025A000005C04E2D4C1D6F1D5C1D7F1D32BC0D79A
:1025B000800ED719006E800E005C02E1080ED65D19
:1025C0001AE3040EA825016E026A000E0222800E94
:1025D000006E800E0218005C02E1015010080BE250
:1025E000010EDA6FDB6B8EEC06F0A7C1FCF1A8C11F
:1025F000FDF1C8EC01F05DD1100E0101A85DD8B06D
:1026000074D0040EA825016E026A000E0222800E0C
:10261000006E800E0218005C02E101500C0865E2B9
:10262000D36B040ED35D3DE2030E006E000E016E0F
:10263000D3C104F0000E056E42EC01F08F0E0024B1
:10264000D96E010E0120DA6EDECF00F000502C08AA
:10265000006E016A000E00BEFF0E015ADBEC0DF0A9
:1026600000C0DAF101C0DBF102C0DCF103C0DDF132
:10267000E0EC07F01AEC09F000C0D4F101C0D5F18C
:10268000800E0118026E800E0101D719025C02E172
:10269000D651005C04E2D4C1D6F1D5C1D7F1D32B19
:1026A000C0D7800ED719006E800E005C02E1080EC4
:1026B000D65D1AE3040EA825016E026A000E0222FE
:1026C000800E006E800E0218005C02E101500C08C2
:1026D0000BE2010EDA6FDB6B8EEC06F0A7C1FCF1AA
:1026E000A8C1FDF1C8EC01F0E4D00C0E0101A85D19
:1026F000D8B074D0040EA825016E026A000E022222
:10270000800E006E800E0218005C02E10150060887
:1027100065E2D36B040ED35D3DE2030E006E000E46
:10272000016ED3C104F0000E056E42EC01F0830E81
:102730000024D96E010E0120DA6EDECF00F00050C9
:102740002C08006E016A000E00BEFF0E015ADBEC81
:102750000DF000C0DAF101C0DBF102C0DCF103C012
:10276000DDF1E0EC07F01AEC09F000C0D4F101C093
:10277000D5F1800E0118026E800E0101D719025C9E
:1027800002E1D651005C04E2D4C1D6F1D5C1D7F143
:10279000D32BC0D7800ED719006E800E005C02E1EB
:1027A000080ED65D1AE3040EA825016E026A000E1B
:1027B0000222800E006E800E0218005C02E10150C1
:1027C00006080BE2010EDA6FDB6B8EEC06F0A7C198
:1027D000FCF1A8C1FDF1C8EC01F06BD0060E0101BF
:1027E000A85D67E2A851000864E2D36B040ED35DD4
:1027F0003DE2030E006E000E016ED3C104F0000E28
:10280000056E42EC01F0770E0024D96E010E012016
:10281000DA6EDECF00F000502C08006E016A000E68
:1028200000BEFF0E015ADBEC0DF000C0DAF101C072
:10283000DBF102C0DCF103C0DDF1E0EC07F01AECE3
:1028400009F000C0D4F101C0D5F1800E0118026E6C
:10285000800E0101D719025C02E1D651005C04E24E
:10286000D4C1D6F1D5C1D7F1D32BC0D7800ED7199B
:10287000006E800E005C02E1080ED65D1AE3040EC5
:10288000A825016E026A000E0222800E006E800EE4
:102890000218005C02E1015001080BE2010EDA6F40
:1028A000DB6B8EEC06F0A7C1FCF1A8C1FDF1C8EC12
:0428B00001F0120021
:0A28B400000E9EBA010E006E120025
:1028BE000001F651000A0DE1F70E0101DA6F000E6C
:1028CE00DB6F620EDC6F070EDD6F010EDE6FE8EC64
:1028DE0008F00001F651010A0DE1FB0E0101DA6F5D
:1028EE00000EDB6F620EDC6F070EDD6F010EDE6F0A
:1028FE00E8EC08F00001F651020A0DE1F90E0101B3
:10290E00DA6F000EDB6F620EDC6F070EDD6F010EED
:10291E00DE6FE8EC08F00001F651030A0DE10D0E32
:10292E000101DA6F010EDB6F620EDC6F070EDD6FD9
:10293E00010EDE6FE8EC08F00001F651040A0DE11D
:10294E000A0E0101DA6F010EDB6F620EDC6F070EED
:10295E00DD6F010EDE6FE8EC08F00001F651050A9E
:10296E000DE1780E0101DA6F000EDB6F620EDC6F87
:10297E00070EDD6F010EDE6FE8EC08F00001F65178
:10298E00060A0DE17A0E0101DA6F000EDB6F620EA0
:10299E00DC6F070EDD6F010EDE6FE8EC08F0000154
:1029AE00F651070A0DE17C0E0101DA6F000EDB6FA6
:1029BE00620EDC6F070EDD6F010EDE6FE8EC08F0C5
:1029CE000001F651080A0DE1760E0101DA6F000ED4
:1029DE00DB6F620EDC6F070EDD6F010EDE6FE8EC53
:1029EE0008F00001F651090A0DE1570E0101DA6FE8
:1029FE00000EDB6F620EDC6F070EDD6F010EDE6FF9
:062A0E00E8EC08F01200E4
:102A14000001F551000A0DE1B50E0101DA6F000E57
:102A2400DB6F190EDC6F070EDD6F010EDE6FE8EC55
:102A340008F00001F551010A0DE1B70E0101DA6F4A
:102A4400000EDB6F190EDC6F070EDD6F010EDE6FFB
:102A5400E8EC08F00001F551020A0DE1990E0101BC
:102A6400DA6F000EDB6F190EDC6F070EDD6F010EDF
:102A7400DE6FE8EC08F00001F551030A0DE1930E56
:102A84000101DA6F000EDB6F190EDC6F070EDD6FCC
:102A9400010EDE6FE8EC08F00001F551040A0DE1C7
:102AA400950E0101DA6F000EDB6F190EDC6F070E55
:102AB400DD6F010EDE6FE8EC08F00001F551050A48
:102AC4000DE1970E0101DA6F000EDB6F190EDC6F5A
:102AD400070EDD6F010EDE6FE8EC08F00001F55122
:102AE400060A0DE1190E0101DA6F000EDB6F190EF3
:102AF400DC6F070EDD6F010EDE6FE8EC08F00001FD
:102B0400F551070A0DE11B0E0101DA6F000EDB6FB0
:102B1400190EDC6F070EDD6F010EDE6FE8EC08F0B6
:102B24000001F551080A0DE11D0E0101DA6F000ED6
:102B3400DB6F190EDC6F070EDD6F010EDE6FE8EC44
:102B440008F00001F551090A0DE1170E0101DA6FD1
:102B5400000EDB6F190EDC6F070EDD6F010EDE6FEA
:062B6400E8EC08F012008D
:102B6A0001010C51030AD8A499EF23F0D36B040E88
:102B7A00D35DD8B05ED1030E006E000E016ED3C1D4
:102B8A0004F0000E056E42EC01F0770E0026010EED
:102B9A000122020E0024E16E000E0120E26E00C046
:102BAA00E9FF01C0EAFFEECF00F000C0E6FF030E26
:102BBA00006E000E016ED3C104F0000E056E42ECE9
:102BCA0001F0770E0024026E010E0120036E02C08E
:102BDA00E9FF03C0EAFFEECF00F0000602C0E1FF02
:102BEA0003C0E2FF00C0E6FF030E006E000E016E96
:102BFA00D3C104F0000E056E42EC01F0770E0024FA
:102C0A00E96E010E0120EA6EEECF01F0800E010A94
:102C1A00006E800E0118005C12E3030E006E000EB7
:102C2A00016ED3C104F0000E056E42EC01F0770E7E
:102C3A000024E16E010E0120E26E7F0EE66E0001B5
:102C4A00F451010AD8A477D0030E006E000E016E6B
:102C5A00D3C104F0000E056E42EC01F0770E002697
:102C6A00010E0122010E0024E96E000E0120EA6E17
:102C7A00EECF01F0800E01BE7F0E006E800E005C6A
:102C8A0003E10101AC51015C55E30101030E006E41
:102C9A00000E016ED3C104F0000E056E42EC01F085
:102CAA00770E0026010E0122010E0024E96E000EA5
:102CBA000120EA6EEECF03F0040EAC25016E026A23
:102CCA00000E0222800E03BE7F0E006E800E0218D6
:102CDA00005C02E10150035C2DE2040E006EDA0E84
:102CEA00E16E010EE26EAB0EE96E010EEA6EEECFF8
:102CFA00E6FF0006FCE1030E006E000E016ED3C172
:102D0A0004F0000E056E42EC01F0770E0024E96E25
:102D1A00010E0120EA6E030E006EDE0EE16E010E58
:102D2A00E26EEECFE6FF0006FCE10101010EE16F63
:102D3A000BEC08F07BD00001F451020AD8A476D03B
:102D4A00030E006E000E016ED3C104F0000E056E74
:102D5A0042EC01F0770E0026010E0122010E00243A
:102D6A00E96E000E0120EA6EEECF01F0800E01BE80
:102D7A007F0E006E800E005C03E10101A851015C28
:102D8A0055E30101030E006E000E016ED3C104F07B
:102D9A00000E056E42EC01F0770E0026010E0122AC
:102DAA00010E0024E96E000E0120EA6EEECF03F058
:102DBA00040EA825016E026A000E0222800E03BECE
:102DCA007F0E006E800E0218005C02E10150035C67
:102DDA002DE2040E006EDA0EE16E010EE26EA70E0F
:102DEA00E96E010EEA6EEECFE6FF0006FCE1030E85
:102DFA00006E000E016ED3C104F0000E056E42ECA7
:102E0A0001F0770E0024E96E010E0120EA6E030E2E
:102E1A00006EDE0EE16E010EE26EEECFE6FF0006F8
:102E2A00FCE10101010EE16F0BEC08F00101D32B6B
:102E3A009ED6D36B040ED35DD8B05ED1030E006E5E
:102E4A00000E016ED3C104F0000E056E42EC01F0D3
:102E5A008F0E0026010E0122020E0024E16E000EE2
:102E6A000120E26E00C0E9FF01C0EAFFEECF00F0E8
:102E7A0000C0E6FF030E006E000E016ED3C104F01F
:102E8A00000E056E42EC01F08F0E0024026E010E58
:102E9A000120036E02C0E9FF03C0EAFFEECF00F093
:102EAA00000602C0E1FF03C0E2FF00C0E6FF030E16
:102EBA00006E000E016ED3C104F0000E056E42ECE6
:102ECA0001F08F0E0024E96E010E0120EA6EEECFAA
:102EDA0001F0800E010A006E800E0118005C12E3F8
:102EEA00030E006E000E016ED3C104F0000E056ED3
:102EFA0042EC01F08F0E0024E16E010E0120E26E19
:102F0A007F0EE66E0001F451010AD8A477D0030EB1
:102F1A00006E000E016ED3C104F0000E056E42EC85
:102F2A0001F08F0E0026010E0122010E0024E96E27
:102F3A00000E0120EA6EEECF01F0800E01BE7F0E78
:102F4A00006E800E005C03E10101AC51015C55E3A7
:102F5A000101030E006E000E016ED3C104F0000ED3
:102F6A00056E42EC01F08F0E0026010E0122010EC1
:102F7A000024E96E000E0120EA6EEECF03F0040E83
:102F8A00AC25016E026A000E0222800E03BE7F0E7D
:102F9A00006E800E0218005C02E10150035C2DE213
:102FAA00040E006EDA0EE16E010EE26EAB0EE96EF1
:102FBA00010EEA6EEECFE6FF0006FCE1030E006E9C
:102FCA00000E016ED3C104F0000E056E42EC01F052
:102FDA008F0E0024E96E010E0120EA6E030E006EC8
:102FEA00DE0EE16E010EE26EEECFE6FF0006FCE1B8
:102FFA000101010EE16F0BEC08F07BD00001F451E6
:10300A00020AD8A476D0030E006E000E016ED3C158
:10301A0004F0000E056E42EC01F08F0E0026010E40
:10302A000122010E0024E96E000E0120EA6EEECFA5
:10303A0001F0800E01BE7F0E006E800E005C03E17F
:10304A000101A851015C55E30101030E006E000E57
:10305A00016ED3C104F0000E056E42EC01F08F0E32
:10306A000026010E0122010E0024E96E000E012045
:10307A00EA6EEECF03F0040EA825016E026A000E76
:10308A000222800E03BE7F0E006E800E0218005CC4
:10309A0002E10150035C2DE2040E006EDA0EE16ECD
:1030AA00010EE26EA70EE96E010EEA6EEECFE6FFA2
:1030BA000006FCE1030E006E000E016ED3C104F09F
:1030CA00000E056E42EC01F08F0E0024E96E010E2F
:1030DA000120EA6E030E006EDE0EE16E010EE26E54
:1030EA00EECFE6FF0006FCE10101010EE16F0BECF9
:1030FA0008F00101D32B9ED6D36B040ED35DD8B052
:10310A005ED1030E006E000E016ED3C104F0000EF4
:10311A00056E42EC01F05F0E0026010E0122020E3E
:10312A000024E16E000E0120E26E00C0E9FF01C03A
:10313A00EAFFEECF00F000C0E6FF030E006E000EBD
:10314A00016ED3C104F0000E056E42EC01F05F0E71
:10315A000024026E010E0120036E02C0E9FF03C0C3
:10316A00EAFFEECF00F0000602C0E1FF03C0E2FF73
:10317A0000C0E6FF030E006E000E016ED3C104F01C
:10318A00000E056E42EC01F05F0E0024E96E010E9E
:10319A000120EA6EEECF01F0800E010A006E800E69
:1031AA000118005C12E3030E006E000E016ED3C11B
:1031BA0004F0000E056E42EC01F05F0E0024E16E91
:1031CA00010E0120E26E7F0EE66E0001F451010A43
:1031DA00D8A477D0030E006E000E016ED3C104F09E
:1031EA00000E056E42EC01F05F0E0026010E012270
:1031FA00010E0024E96E000E0120EA6EEECF01F006
:10320A00800E01BE7F0E006E800E005C03E101019C
:10321A00AC51015C55E30101030E006E000E016E14
:10322A00D3C104F0000E056E42EC01F05F0E0026D9
:10323A00010E0122010E0024E96E000E0120EA6E41
:10324A00EECF03F0040EAC25016E026A000E0222D4
:10325A00800E03BE7F0E006E800E0218005C02E133
:10326A000150035C2DE2040E006EDA0EE16E010ECF
:10327A00E26EAB0EE96E010EEA6EEECFE6FF0006D5
:10328A00FCE1030E006E000E016ED3C104F0000EC5
:10329A00056E42EC01F05F0E0024E96E010E01207A
:1032AA00EA6E030E006EDE0EE16E010EE26EEECFE6
:1032BA00E6FF0006FCE10101010EE16F0BEC08F0EC
:1032CA007BD00001F451020AD8A476D0030E006E16
:1032DA00000E016ED3C104F0000E056E42EC01F03F
:1032EA005F0E0026010E0122010E0024E96E000E77
:1032FA000120EA6EEECF01F0800E01BE7F0E006E55
:10330A00800E005C03E10101A851015C55E3010153
:10331A00030E006E000E016ED3C104F0000E056E9E
:10332A0042EC01F05F0E0026010E0122010E00247C
:10333A00E96E000E0120EA6EEECF03F0040EA82516
:10334A00016E026A000E0222800E03BE7F0E006E1C
:10335A00800E0218005C02E10150035C2DE2040EAB
:10336A00006EDA0EE16E010EE26EA70EE96E010E34
:10337A00EA6EEECFE6FF0006FCE1030E006E000ED9
:10338A00016ED3C104F0000E056E42EC01F05F0E2F
:10339A000024E96E010E0120EA6E030E006EDE0EB5
:1033AA00E16E010EE26EEECFE6FF0006FCE10101DE
:1033BA00010EE16F0BEC08F00101D32B9ED6D36B03
:1033CA00040ED35DD8B05ED1030E006E000E016EFE
:1033DA00D3C104F0000E056E42EC01F09B0E0026EC
:1033EA00010E0122020E0024E16E000E0120E26E9F
:1033FA0000C0E9FF01C0EAFFEECF00F000C0E6FF1F
:10340A00030E006E000E016ED3C104F0000E056EAD
:10341A0042EC01F09B0E0024026E010E0120036EA5
:10342A0002C0E9FF03C0EAFFEECF00F0000602C0C7
:10343A00E1FF03C0E2FF00C0E6FF030E006E000ECC
:10344A00016ED3C104F0000E056E42EC01F09B0E32
:10345A000024E96E010E0120EA6EEECF01F0800E23
:10346A00010A006E800E0118005C12E3030E006E62
:10347A00000E016ED3C104F0000E056E42EC01F09D
:10348A009B0E0024E16E010E0120E26E7F0EE66EB5
:10349A000001F451010AD8A477D0030E006E000E81
:1034AA00016ED3C104F0000E056E42EC01F09B0ED2
:1034BA000026010E0122010E0024E96E000E0120F1
:1034CA00EA6EEECF01F0800E01BE7F0E006E800E16
:1034DA00005C03E10101AC51015C55E30101030EFB
:1034EA00006E000E016ED3C104F0000E056E42ECB0
:1034FA0001F09B0E0026010E0122010E0024E96E46
:10350A00000E0120EA6EEECF03F0040EAC25016E28
:10351A00026A000E0222800E03BE7F0E006E800E2B
:10352A000218005C02E10150035C2DE2040E006EF9
:10353A00DA0EE16E010EE26EAB0EE96E010EEA6E74
:10354A00EECFE6FF0006FCE1030E006E000E016EF0
:10355A00D3C104F0000E056E42EC01F09B0E00246C
:10356A00E96E010E0120EA6E030E006EDE0EE16EB8
:10357A00010EE26EEECFE6FF0006FCE10101010E4C
:10358A00E16F0BEC08F07BD00001F451020AD8A4D9
:10359A0076D0030E006E000E016ED3C104F0000E49
:1035AA00056E42EC01F09B0E0026010E0122010E6F
:1035BA000024E96E000E0120EA6EEECF01F0800EC3
:1035CA0001BE7F0E006E800E005C03E10101A8516E
:1035DA00015C55E30101030E006E000E016ED3C1BA
:1035EA0004F0000E056E42EC01F09B0E0026010E5F
:1035FA000122010E0024E96E000E0120EA6EEECFD0
:10360A0003F0040EA825016E026A000E0222800E43
:10361A0003BE7F0E006E800E0218005C02E10150AC
:10362A00035C2DE2040E006EDA0EE16E010EE26E0C
:10363A00A70EE96E010EEA6EEECFE6FF0006FCE188
:10364A00030E006E000E016ED3C104F0000E056E6B
:10365A0042EC01F09B0E0024E96E010E0120EA6E95
:10366A00030E006EDE0EE16E010EE26EEECFE6FF95
:10367A000006FCE10101010EE16F0BEC08F001010B
:10368A00D32B9ED6D36B040ED35DD8B05ED1030E76
:10369A00006E000E016ED3C104F0000E056E42ECFE
:1036AA0001F0C40E0026010E0122020E0024E16E72
:1036BA00000E0120E26E00C0E9FF01C0EAFFEECF72
:1036CA0000F000C0E6FF030E006E000E016ED3C1CB
:1036DA0004F0000E056E42EC01F0C40E0024026EE6
:1036EA00010E0120036E02C0E9FF03C0EAFFEECF1C
:1036FA0000F0000602C0E1FF03C0E2FF00C0E6FFDF
:10370A00030E006E000E016ED3C104F0000E056EAA
:10371A0042EC01F0C40E0024E96E010E0120EA6EAB
:10372A00EECF01F0800E010A006E800E0118005CD7
:10373A0012E3030E006E000E016ED3C104F0000EF8
:10374A00056E42EC01F0C40E0024E16E010E012068
:10375A00E26E7F0EE66E0001F451010AD8A477D01A
:10376A00030E006E000E016ED3C104F0000E056E4A
:10377A0042EC01F0C40E0026010E0122010E0024C3
:10378A00E96E000E0120EA6EEECF01F0800E01BE56
:10379A007F0E006E800E005C03E10101AC51015CFA
:1037AA0055E30101030E006E000E016ED3C104F051
:1037BA00000E056E42EC01F0C40E0026010E012235
:1037CA00010E0024E96E000E0120EA6EEECF03F02E
:1037DA00040EAC25016E026A000E0222800E03BEA0
:1037EA007F0E006E800E0218005C02E10150035C3D
:1037FA002DE2040E006EDA0EE16E010EE26EAB0EE1
:10380A00E96E010EEA6EEECFE6FF0006FCE1030E5A
:10381A00006E000E016ED3C104F0000E056E42EC7C
:10382A0001F0C40E0024E96E010E0120EA6E030EB7
:10383A00006EDE0EE16E010EE26EEECFE6FF0006CE
:10384A00FCE10101010EE16F0BEC08F07BD00001F5
:10385A00F451020AD8A476D0030E006E000E016E4F
:10386A00D3C104F0000E056E42EC01F0C40E00262E
:10387A00010E0122010E0024E96E000E0120EA6EFB
:10388A00EECF01F0800E01BE7F0E006E800E005C4E
:10389A0003E10101A851015C55E30101030E006E29
:1038AA00000E016ED3C104F0000E056E42EC01F069
:1038BA00C40E0026010E0122010E0024E96E000E3C
:1038CA000120EA6EEECF03F0040EA825016E026A0B
:1038DA00000E0222800E03BE7F0E006E800E0218BA
:1038EA00005C02E10150035C2DE2040E006EDA0E68
:1038FA00E16E010EE26EA70EE96E010EEA6EEECFE0
:10390A00E6FF0006FCE1030E006E000E016ED3C155
:10391A0004F0000E056E42EC01F0C40E0024E96EBC
:10392A00010E0120EA6E030E006EDE0EE16E010E3C
:10393A00E26EEECFE6FF0006FCE10101010EE16F47
:10394A000BEC08F00101D32B9ED6D36B040ED35D8A
:10395A00D8B05ED1030E006E000E016ED3C104F022
:10396A00000E056E42EC01F0830E0026010E0122C4
:10397A00020E0024E16E000E0120E26E00C0E9FF93
:10398A0001C0EAFFEECF00F000C0E6FF030E006EB2
:10399A00000E016ED3C104F0000E056E42EC01F078
:1039AA00830E0024026E010E0120036E02C0E9FF9D
:1039BA0003C0EAFFEECF00F0002A02C0E1FF03C015
:1039CA00E2FF00C0E6FF030E006E000E016ED3C1D7
:1039DA0004F0000E056E42EC01F0830E0024E96E3D
:1039EA00010E0120EA6EEECF01F0800E7E0A006E13
:1039FA00800E0118005C12E2030E006E000E016ECA
:103A0A00D3C104F0000E056E42EC01F0830E0024CF
:103A1A00E16E010E0120E26E020EE66E0001F45123
:103A2A00010AD8A477D0030E006E000E016ED3C12E
:103A3A0004F0000E056E42EC01F0830E0026010E22
:103A4A000122010E0024E96E000E0120EA6EEECF7B
:103A5A0001F0800E01BE7F0E006E800E005C03E155
:103A6A000101AC51015C55E30101030E006E000E29
:103A7A00016ED3C104F0000E056E42EC01F0830E14
:103A8A000026010E0122010E0024E96E000E01201B
:103A9A00EA6EEECF03F0040EAC25016E026A000E48
:103AAA000222800E03BE7F0E006E800E0218005C9A
:103ABA0002E10150035C2DE2040E006EDA0EE16EA3
:103ACA00010EE26EAB0EE96E010EEA6EEECFE6FF74
:103ADA000006FCE1030E006E000E016ED3C104F075
:103AEA00000E056E42EC01F0830E0024E96E010E11
:103AFA000120EA6E030E006EDE0EE16E010EE26E2A
:103B0A00EECFE6FF0006FCE10101010EE16F0BECCE
:103B1A0008F07BD00001F451020AD8A476D0030E33
:103B2A00006E000E016ED3C104F0000E056E42EC69
:103B3A0001F0830E0026010E0122010E0024E96E17
:103B4A00000E0120EA6EEECF01F0800E01BE7F0E5C
:103B5A00006E800E005C03E10101A851015C55E38F
:103B6A000101030E006E000E016ED3C104F0000EB7
:103B7A00056E42EC01F0830E0026010E0122010EB1
:103B8A000024E96E000E0120EA6EEECF03F0040E67
:103B9A00A825016E026A000E0222800E03BE7F0E65
:103BAA00006E800E0218005C02E10150035C2DE2F7
:103BBA00040E006EDA0EE16E010EE26EA70EE96ED9
:103BCA00010EEA6EEECFE6FF0006FCE1030E006E80
:103BDA00000E016ED3C104F0000E056E42EC01F036
:103BEA00830E0024E96E010E0120EA6E030E006EB8
:103BFA00DE0EE16E010EE26EEECFE6FF0006FCE19C
:103C0A000101010EE16F0BEC08F00101D32B9ED6E6
:103C1A00D36B030ED35DD8B05ED1030E006E000ED7
:103C2A00016ED3C104F0000E056E42EC01F0560E8F
:103C3A000026010E0122020E0024E16E000E012070
:103C4A00E26E00C0E9FF01C0EAFFEECF00F000C05B
:103C5A00E6FF030E006E000E016ED3C104F0000EE3
:103C6A00056E42EC01F0560E0024026E010E012090
:103C7A00036E02C0E9FF03C0EAFFEECF00F0002A9C
:103C8A0002C0E1FF03C0E2FF00C0E6FF030E006EC0
:103C9A00000E016ED3C104F0000E056E42EC01F075
:103CAA00560E0024E96E010E0120EA6EEECF01F0F5
:103CBA00800E7E0A006E800E0118005C12E2030E6E
:103CCA00006E000E016ED3C104F0000E056E42ECC8
:103CDA0001F0560E0024E16E010E0120E26E020E82
:103CEA00E66E0001F451010AD8A477D0030E006EE3
:103CFA00000E016ED3C104F0000E056E42EC01F015
:103D0A00560E0026010E0122010E0024E96E000E55
:103D1A000120EA6EEECF01F0800E01BE7F0E006E2A
:103D2A00800E005C03E10101AC51015C55E3010125
:103D3A00030E006E000E016ED3C104F0000E056E74
:103D4A0042EC01F0560E0026010E0122010E00245B
:103D5A00E96E000E0120EA6EEECF03F0040EAC25E8
:103D6A00016E026A000E0222800E03BE7F0E006EF2
:103D7A00800E0218005C02E10150035C2DE2040E81
:103D8A00006EDA0EE16E010EE26EAB0EE96E010E06
:103D9A00EA6EEECFE6FF0006FCE1030E006E000EAF
:103DAA00016ED3C104F0000E056E42EC01F0560E0E
:103DBA000024E96E010E0120EA6E030E006EDE0E8B
:103DCA00E16E010EE26EEECFE6FF0006FCE10101B4
:103DDA00010EE16F0BEC08F07BD00001F451020AEE
:103DEA00D8A476D0030E006E000E016ED3C104F083
:103DFA00000E056E42EC01F0560E0026010E01225D
:103E0A00010E0024E96E000E0120EA6EEECF01F0E9
:103E1A00800E01BE7F0E006E800E005C03E1010180
:103E2A00A851015C55E30101030E006E000E016EFC
:103E3A00D3C104F0000E056E42EC01F0560E0026C6
:103E4A00010E0122010E0024E96E000E0120EA6E25
:103E5A00EECF03F0040EA825016E026A000E0222BC
:103E6A00800E03BE7F0E006E800E0218005C02E117
:103E7A000150035C2DE2040E006EDA0EE16E010EB3
:103E8A00E26EA70EE96E010EEA6EEECFE6FF0006BD
:103E9A00FCE1030E006E000E016ED3C104F0000EA9
:103EAA00056E42EC01F0560E0024E96E010E012067
:103EBA00EA6E030E006EDE0EE16E010EE26EEECFCA
:103ECA00E6FF0006FCE10101010EE16F0BEC08F0D0
:103EDA000101D32B9ED6D36B040ED35DD8B05ED12D
:103EEA00030E006E000E016ED3C104F0000E056EC3
:103EFA0042EC01F06B0E0026010E0122020E002494
:103F0A00E16E000E0120E26E00C0E9FF01C0EAFF87
:103F1A00EECF00F000C0E6FF030E006E000E016E49
:103F2A00D3C104F0000E056E42EC01F06B0E0024C2
:103F3A00026E010E0120036E02C0E9FF03C0EAFF10
:103F4A00EECF00F0002A02C0E1FF03C0E2FF00C08A
:103F5A00E6FF030E006E000E016ED3C104F0000EE0
:103F6A00056E42EC01F06B0E0024E96E010E012091
:103F7A00EA6EEECF01F0800E7E0A006E800E011806
:103F8A00005C12E2030E006E000E016ED3C104F053
:103F9A00000E056E42EC01F06B0E0024E16E010E7C
:103FAA000120E26E020EE66E0001F451010AD8A465
:103FBA0077D0030E006E000E016ED3C104F0000E1E
:103FCA00056E42EC01F06B0E0026010E0122010E75
:103FDA000024E96E000E0120EA6EEECF01F0800E99
:103FEA0001BE7F0E006E800E005C03E10101AC5140
:103FFA00015C55E30101030E006E000E016ED3C190
:10400A0004F0000E056E42EC01F06B0E0026010E64
:10401A000122010E0024E96E000E0120EA6EEECFA5
:10402A0003F0040EAC25016E026A000E0222800E15
:10403A0003BE7F0E006E800E0218005C02E1015082
:10404A00035C2DE2040E006EDA0EE16E010EE26EE2
:10405A00AB0EE96E010EEA6EEECFE6FF0006FCE15A
:10406A00030E006E000E016ED3C104F0000E056E41
:10407A0042EC01F06B0E0024E96E010E0120EA6E9B
:10408A00030E006EDE0EE16E010EE26EEECFE6FF6B
:10409A000006FCE10101010EE16F0BEC08F07BD098
:1040AA000001F451020AD8A476D0030E006E000E65
:1040BA00016ED3C104F0000E056E42EC01F06B0EE6
:1040CA000026010E0122010E0024E96E000E0120D5
:1040DA00EA6EEECF01F0800E01BE7F0E006E800EFA
:1040EA00005C03E10101A851015C55E30101030EE3
:1040FA00006E000E016ED3C104F0000E056E42EC94
:10410A0001F06B0E0026010E0122010E0024E96E59
:10411A00000E0120EA6EEECF03F0040EA825016E10
:10412A00026A000E0222800E03BE7F0E006E800E0F
:10413A000218005C02E10150035C2DE2040E006EDD
:10414A00DA0EE16E010EE26EA70EE96E010EEA6E5C
:10415A00EECFE6FF0006FCE1030E006E000E016ED4
:10416A00D3C104F0000E056E42EC01F06B0E002480
:10417A00E96E010E0120EA6E030E006EDE0EE16E9C
:10418A00010EE26EEECFE6FF0006FCE10101010E30
:10419A00E16F0BEC08F00101D32B9ED6D36B030E13
:1041AA00D35DD8B05ED1030E006E000E016ED3C18E
:1041BA0004F0000E056E42EC01F0AF0E0026010E6F
:1041CA000122020E0024E16E000E0120E26E00C000
:1041DA00E9FF01C0EAFFEECF00F000C0E6FF030EE0
:1041EA00006E000E016ED3C104F0000E056E42ECA3
:1041FA0001F0AF0E0024026E010E0120036E02C010
:10420A00E9FF03C0EAFFEECF00F0002A02C0E1FF97
:10421A0003C0E2FF00C0E6FF030E006E000E016E4F
:10422A00D3C104F0000E056E42EC01F0AF0E00247B
:10423A00E96E010E0120EA6EEECF01F0800E7E0AD1
:10424A00006E800E0118005C12E2030E006E000E72
:10425A00016ED3C104F0000E056E42EC01F0AF0E00
:10426A000024E16E010E0120E26E020EE66E0001EC
:10427A00F451010AD8A477D0030E006E000E016E25
:10428A00D3C104F0000E056E42EC01F0AF0E002619
:10429A00010E0122010E0024E96E000E0120EA6ED1
:1042AA00EECF01F0800E01BE7F0E006E800E005C24
:1042BA0003E10101AC51015C55E30101030E006EFB
:1042CA00000E016ED3C104F0000E056E42EC01F03F
:1042DA00AF0E0026010E0122010E0024E96E000E27
:1042EA000120EA6EEECF03F0040EAC25016E026ADD
:1042FA00000E0222800E03BE7F0E006E800E021890
:10430A00005C02E10150035C2DE2040E006EDA0E3D
:10431A00E16E010EE26EAB0EE96E010EEA6EEECFB1
:10432A00E6FF0006FCE1030E006E000E016ED3C12B
:10433A0004F0000E056E42EC01F0AF0E0024E96EA7
:10434A00010E0120EA6E030E006EDE0EE16E010E12
:10435A00E26EEECFE6FF0006FCE10101010EE16F1D
:10436A000BEC08F07BD00001F451020AD8A476D0F5
:10437A00030E006E000E016ED3C104F0000E056E2E
:10438A0042EC01F0AF0E0026010E0122010E0024BC
:10439A00E96E000E0120EA6EEECF01F0800E01BE3A
:1043AA007F0E006E800E005C03E10101A851015CE2
:1043BA0055E30101030E006E000E016ED3C104F035
:1043CA00000E056E42EC01F0AF0E0026010E01222E
:1043DA00010E0024E96E000E0120EA6EEECF03F012
:1043EA00040EA825016E026A000E0222800E03BE88
:1043FA007F0E006E800E0218005C02E10150035C21
:10440A002DE2040E006EDA0EE16E010EE26EA70EC8
:10441A00E96E010EEA6EEECFE6FF0006FCE1030E3E
:10442A00006E000E016ED3C104F0000E056E42EC60
:10443A0001F0AF0E0024E96E010E0120EA6E030EB0
:10444A00006EDE0EE16E010EE26EEECFE6FF0006B2
:10445A00FCE10101010EE16F0BEC08F00101D32B25
:10446A009ED6D36B040ED35DD8B05ED1030E006E18
:10447A00000E016ED3C104F0000E056E42EC01F08D
:10448A00B80E0026010E0122020E0024E16E000E73
:10449A000120E26E00C0E9FF01C0EAFFEECF00F0A2
:1044AA0000C0E6FF030E006E000E016ED3C104F0D9
:1044BA00000E056E42EC01F0B80E0024026E010EE9
:1044CA000120036E02C0E9FF03C0EAFFEECF00F04D
:1044DA00002A02C0E1FF03C0E2FF00C0E6FF030EAC
:1044EA00006E000E016ED3C104F0000E056E42ECA0
:1044FA0001F0B80E0024E96E010E0120EA6EEECF3B
:10450A0001F0800E7E0A006E800E0118005C12E235
:10451A00030E006E000E016ED3C104F0000E056E8C
:10452A0042EC01F0B80E0024E16E010E0120E26EA9
:10453A00020EE66E0001F451010AD8A477D0030EE8
:10454A00006E000E016ED3C104F0000E056E42EC3F
:10455A0001F0B80E0026010E0122010E0024E96EB8
:10456A00000E0120EA6EEECF01F0800E01BE7F0E32
:10457A00006E800E005C03E10101AC51015C55E361
:10458A000101030E006E000E016ED3C104F0000E8D
:10459A00056E42EC01F0B80E0026010E0122010E52
:1045AA000024E96E000E0120EA6EEECF03F0040E3D
:1045BA00AC25016E026A000E0222800E03BE7F0E37
:1045CA00006E800E0218005C02E10150035C2DE2CD
:1045DA00040E006EDA0EE16E010EE26EAB0EE96EAB
:1045EA00010EEA6EEECFE6FF0006FCE1030E006E56
:1045FA00000E016ED3C104F0000E056E42EC01F00C
:10460A00B80E0024E96E010E0120EA6E030E006E58
:10461A00DE0EE16E010EE26EEECFE6FF0006FCE171
:10462A000101010EE16F0BEC08F07BD00001F4519F
:10463A00020AD8A476D0030E006E000E016ED3C112
:10464A0004F0000E056E42EC01F0B80E0026010ED1
:10465A000122010E0024E96E000E0120EA6EEECF5F
:10466A0001F0800E01BE7F0E006E800E005C03E139
:10467A000101A851015C55E30101030E006E000E11
:10468A00016ED3C104F0000E056E42EC01F0B80EC3
:10469A000026010E0122010E0024E96E000E0120FF
:1046AA00EA6EEECF03F0040EA825016E026A000E30
:1046BA000222800E03BE7F0E006E800E0218005C7E
:1046CA0002E10150035C2DE2040E006EDA0EE16E87
:1046DA00010EE26EA70EE96E010EEA6EEECFE6FF5C
:1046EA000006FCE1030E006E000E016ED3C104F059
:1046FA00000E056E42EC01F0B80E0024E96E010EC0
:10470A000120EA6E030E006EDE0EE16E010EE26E0D
:10471A00EECFE6FF0006FCE10101010EE16F0BECB2
:0A472A0008F00101D32B9ED6120007
:10473400C26A0001E61D006E0050C116070EC012C9
:10474400C08ED3C100F000360090003600900050B7
:10475400C212C28091EC08F0C282C2A201D0FDD77D
:10476400C4CF01F0006AC3500012000E0112C290BF
:02477400120031
:104776004F0E0101DA6F5D0EDB6F000EDC6F97ECFA
:1047860008F0E90EDA6F000EDB6F230EDC6F040E05
:10479600DD6F010EDE6FE8EC08F0FE0EDA6F000E3C
:1047A600DB6F200EDC6F060EDD6F010EDE6FE8ECB0
:0447B60008F01200F5
:1047BA0089EC06F00050010A01E0FAD7D3C1DAF118
:0A47CA00D4C1DBF177EC08F0120017
:1047D40001010C6B0001E76BE86BFD6BF56BF66B8D
:0447E400F46B120060
:1047E8004F0E0101DA6F590EDB6F000EDC6F97EC8C
:0447F80008F01200B3
:1047FC00E8C0D3F1400E0101D35D0CE2400E020182
:10480C000B6FD3C10CF2010E0D6F73EC00F00101B4
:06481C00D32BF0D71200BF
:10482200100E0101776F020E786F300E7A6F020E52
:104832007B6F590E7D6F020E7E6F7C0E806F020EB3
:10484200816F0D0E8F6F0C0E906F300E926F0C0EEB
:10485200936F4E0E956F0C0E966F6F0E986F0C0E37
:10486200996F160E5F6F150E606F3E0E626F150E1A
:10487200636F5C0E656F150E666F7E0E686F150EA8
:10488200696F110E9B6F230E9C6F3D0E9E6F230E60
:104892009F6F5E0EA16F230EA26F760EA46F230E82
:1048A200A56F070EC46F380EC56F290EC76F380E7D
:1048B200C86F4A0ECA6F380ECB6F6B0ECD6F380EB3
:1048C200CE6F1B0E8C6F060E8D6F3F0E896F060E1C
:1048D2008A6F640E866F060E876F7B0E836F060EDD
:1048E200846F250E5C6F100E5D6F540E596F100EA3
:1048F2005A6F7E0E566F100E576F130E746F1C0E8A
:10490200756F310E716F1C0E726F530E6E6F1C0E2F
:104912006F6F770E6B6F1C0E6C6F100EB56F280EDB
:10492200B66F480EB26F280EB36F790EAF6F280EB6
:10493200B06F1D0EC16F310EC26F3C0EBE6F310ED5
:10494200BF6F5A0EBB6F310EBC6F780EB86F310E4F
:08495200B96F83EC09F01200BB
:10495A0015EC32F0330E0101D06FD16BD26BFCEC47
:10496A000DF0D36B72EC0EF0826A94809482B88652
:10497A00B06ACF0EAF6EAC8446EC0EF0030E0B6E2F
:10498A00080E0C6E770E0D6E0D2EFED70C2EFCD770
:10499A000B2EFAD732EC0EF0A2EC0EF0D36B72ECBF
:1049AA000EF0E9D2E3DE0101D36BBFDE00C04AF0AC
:1049BA0001C04BF0000E026E0150025C02E1005091
:1049CA0064081DE34C0E0101DA6F000EDB6F230E43
:1049DA00DC6F040EDD6FDE6BE8EC08F0010E496E49
:1049EA000B0E0B6E260E0C6E5D0E0D6E0D2EFED787
:1049FA000C2EFCD70B2EFAD70000000024D0020E92
:104A0A004B5C02E1580E4A5C1DE301013D0EDA6F70
:104A1A00000EDB6F200EDC6F060EDD6FDE6BE8EC3E
:104A2A0008F0020E496E0B0E0B6E260E0C6E5D0E12
:104A3A000D6E0D2EFED70C2EFCD70B2EFAD70000CA
:104A4A00000001D0B0D70101D36B72EC0EF09FD2F7
:104A5A00BCDE3CEC06F0E0DECCDE01010C510308C2
:104A6A00D8A00C6B140E0001FD5D0BE3400E020191
:104A7A000B6FE8C00CF20D6B73EC00F00001FD6BDC
:104A8A00E82BE7510608D8A0E76BE8513F0A56E140
:104A9A000B0E0B6E260E0C6E5D0E0D6E0D2EFED7D6
:104AAA000C2EFCD70B2EFAD700000000F551F65D4C
:104ABA001FE295DE200EDA6F000EDB6F2B0EDC6F25
:104ACA00040EDD6F010EDE6FE8EC08F01F0E0B6EB0
:104ADA00710E0C6E1E0E0D6E0D2EFED70C2EFCD70F
:104AEA000B2EFAD70000D36B72EC0EF0496A98D0FD
:104AFA000001F651F55D1FE272DE2A0EDA6F000E32
:104B0A00DB6F240EDC6F040EDD6F010EDE6FE8EC46
:104B1A0008F01F0E0B6E710E0C6E1E0E0D6E0D2E12
:104B2A00FED70C2EFCD70B2EFAD70000D36B72ECF3
:104B3A000EF0496A75D00001E86B5BDE0001F451A2
:104B4A00000A27E10101D26BD36BEFDD00C04AF006
:104B5A0001C04BF0000E026E0150025C02E10050EF
:104B6A00640807E2020E4B5C02E1580E4A5C01E25D
:104B7A0004D00001010EF46F0BD00101D2513208AA
:104B8A0004E2020E0001F46F03D00101D22BDCD73C
:104B9A0039D00001F451010A2FE10101D36BC5DDBF
:104BAA0000C04AF001C04BF0020E015C02E1580E4F
:104BBA00005C0CE30101DA6B010EDB6F8EEC06F090
:104BCA00ABC1FCF1ACC1FDF1C8EC01F0000E006E06
:104BDA004B50005C02E14A5064080DE3010E0101EA
:104BEA00DA6F010EDB6F8EEC06F0ABC1FCF1ACC1E3
:104BFA00FDF1C8EC01F006D00001F451020A02E10D
:104C0A0018EC0FF0B5EC15F083EC09F05FEC14F03A
:104C1A000AEC15F001010C2B0001E72BFD2B1DD727
:104C2A00B6D13CEC06F0F8DD5AEC14F00050000A5C
:104C3A0007E1310ED06F320EE26F27EC06F004D096
:104C4A00F1EC0EF000C0D0F10101D051320A18E1A6
:104C5A00380EDA6F000EDB6FDC6BDD6B010EDE6F78
:104C6A00E8EC08F0DB0EDA6F000EDB6F730EDC6F18
:104C7A00DD6B010EDE6FE8EC08F0020ED16F16D084
:104C8A00DE0EDA6F000EDB6FDC6BDD6B010EDE6FA2
:104C9A00E8EC08F0E30EDA6F000EDB6FDC6BDD6B1D
:104CAA00010EDE6FE8EC08F0010ED16F300E1F6EB8
:104CBA000001E86BF46B530E156E530E166EFD6B06
:104CCA00F56BF66B01010C6BD151010AD8A452D1D4
:104CDA0090DD01010C51030803E20C6B430E156EC3
:104CEA000001FD5114080DE2400E02010B6FE8C0ED
:104CFA000CF20D6B73EC00F00001E82BFD6B430E18
:104D0A00166EF451000A3CE10101D36B0EDD00C0BE
:104D1A004AF001C04BF05AEC14F00050000A01E1CD
:104D2A00FAD7F1EC0EF00050300A12E0000E006ED5
:104D3A004B50005C02E14A5064080AE2020E4B5CE6
:104D4A0002E1580E4A5C04E2020E0001F46F17D029
:104D5A00F1EC0EF00050300A12E1000E006E4B50DA
:104D6A00005C02E14A50640807E2020E4B5C02E171
:104D7A00580E4A5C01E203D0010E0001F46F60D0C4
:104D8A000001F451010A30E10101D36BCEDC00C00D
:104D9A004AF001C04BF0020E015C02E1580E005CC1
:104DAA000DE30101DA6B010EDB6F8EEC06F0ABC18D
:104DBA00FCF1ACC1FDF1C8EC01F015D0000E006E9B
:104DCA004B50005C02E14A5064080DE3010E0101F8
:104DDA00DA6F010EDB6F8EEC06F0ABC1FCF1ACC1F1
:104DEA00FDF1C8EC01F02CD00001F451020A28E1CF
:104DFA005AEC14F00050000A01E1FAD7F1EC0EF077
:104E0A000050310A0CE10101DA6BDB6B8EEC06F023
:104E1A00A7C1FCF1A8C1FDF1C8EC01F011D0F1EC79
:104E2A000EF00050320A0CE1010E0101DA6FDB6B61
:104E3A008EEC06F0A7C1FCF1A8C1FDF1C8EC01F0A7
:104E4A00B5EC15F083EC09F00001E8513F0A02E1E4
:104E5A00310E1F6EFAEC0EF00F0ED36F010ED46FE7
:104E6A00A7DC89EC06F00050010A01E0FAD75FECF2
:104E7A0014F00AEC15F00001E8513F0A72E10B0E3A
:104E8A000B6E260E0C6E5D0E0D6E0D2EFED70C2EC1
:104E9A00FCD70B2EFAD700000000F551F65D1FE291
:104EAA009EDCCF0EDA6F000EDB6F2B0EDC6F040E6A
:104EBA00DD6F010EDE6FE8EC08F01F0E0B6E710E4F
:104ECA000C6E1E0E0D6E0D2EFED70C2EFCD70B2E61
:104EDA00FAD70000D36B72EC0EF0496A4BD000018E
:104EEA00F651F55D1FE27BDCBA0EDA6F000EDB6F5E
:104EFA00240EDC6F040EDD6F010EDE6FE8EC08F0A5
:104F0A001F0E0B6E710E0C6E1E0E0D6E0D2EFED741
:104F1A000C2EFCD70B2EFAD70000D36B72EC0EF0D6
:104F2A00496A28D05CDCC50EDA6F000EDB6F240EEE
:104F3A00DC6F040EDD6F010EDE6FE8EC08F01F0E69
:104F4A000B6E710E0C6E1E0E0D6E0D2EFED70C2EF4
:104F5A00FCD70B2EFAD70000D36B72EC0EF0496A1D
:104F6A0009D001010C2B0001FD2B530E156E530EB7
:104F7A00166EAFD60CD04950000AD8B413D5495092
:104F8A00010AD8B465D54950020AD8B44AD609D517
:024F9A00FFD73F
:10642A0010EE15F0FA0E006E010E016E2F0EF66ECA
:0E643A00630EF76E000EF86E2AEC0EF01200E4
:104F9C00000020007F000B0001880100019301003C
:104FAC00039E010007A9010005B4010009BF01001F
:104FBC0006D5010001E0010003EB010002F601003F
:104FCC0005010200060C0200021702000222020078
:104FDC00022D02000338020004430200044E0200BA
:104FEC000459020004640200056F0200047A0200F6
:104FFC000485020004900200049B020004A6020037
:10500C0002B1020002BC020006C7020006D2020076
:10501C0006DD020004E8020007F3020006FE0200AF
:10502C000509030006140300061F0300052A0300EC
:10503C000535030006400300064B0300035603002E
:10504C0003610300056C030004770300078203006F
:10505C00068D03000798030005A3030007AE0300A9
:10506C0005B9030005C4030005CF030006DA0300ED
:10507C0006E5030007F0030004FB0300050604002B
:10508C0004110400021C0400032704000232040073
:10509C00053D04000548040003530400045E0400AD
:1050AC000469040003740400047F0400048A0400EF
:1050BC000395040004A0040004AB040001B6040032
:1050CC0002C1040004CC040001D7040007E2040070
:1050DC0004ED040004F8040004030500040E0500AC
:1050EC000319050003240500022F0500043A0500EE
:1050FC000545050007500500035B05000566050026
:10510C0003710500037C050002870500039205006E
:10511C00069D050002A8050000000000000000002C
:10512C000000000000010101010100010000000568
:10513C00050500000000000000000024247E143F40
:10514C00121200000000041E05060C140F040400CB
:10515C00000000460029002900D60028012801C4BF
:10516C0000000000000000060909160919260000BD
:10517C000001010100000000000000000402010118
:10518C0001010101020400000102020202020201FB
:10519C000004150E150400000000000000000008BB
:1051AC00083E080800000000000000000000020299
:1051BC0001000000000000000300000000000000DF
:1051CC0000000000020200000004040202020202BD
:1051DC000101000000060909090909060000000088
:1051EC000406040404040E0000000007080804026E
:1051FC00010F00000000070808060808070000005F
:10520C0000080C0A091F0808000000000F01010724
:10521C000808070000000006010107090906000044
:10522C0000000F0804040202010000000006090936
:10523C0006090906000000000609090E0808060008
:10524C00000000000002020002020000000000004A
:10525C000202000202010000000000201C021C20BF
:10526C00000000000000003F003F000000000000B4
:10527C0000021C201C0200000000070808040200A9
:10528C0002000000001C2259555539021C00000078
:10529C000C0C12123F2121000000000709090F110C
:1052AC00110F000000001C22010101221C00000053
:1052BC00000F11212121110F000000001F01010F0F
:1052CC0001011F000000001F01010F01010100007E
:1052DC0000001C22013921223C0000000021212168
:1052EC003F212121000000000702020202020700F8
:1052FC00000000060404040404030000000011096B
:10530C000503050911000000000101010101010F55
:10531C00000000006363555549494100000000211D
:10532C00232529312121000000001C22414141226A
:10533C001C000000000F1111110F010100000000F2
:10534C001C22414141221C106000000F11110F055D
:10535C000911000000001E01010E10100F000000CA
:10536C00001F040404040404000000002121212176
:10537C0021211E0000000021212112120C0C000022
:10538C000000494955555522220000000009090624
:10539C000606090900000000110A0A0404040400AE
:1053AC000000000F08040202010F000000030101BD
:1053BC0001010101010103000101020202020204C8
:1053CC0004000003020202020202020203000004B3
:1053DC000A110000000000000000000000000000A6
:1053EC0000001F000204000000000000000000008C
:1053FC00000006080E090E00000001010107090952
:10540C000907000000000000060101010600000071
:10541C000808080E0909090E000000000000060922
:10542C000F010E000000060101070101010100003F
:10543C00000000000E0909090E0806000101010711
:10544C000909090900000000010001010101010026
:10545C00000000020003020202020201000101012D
:10546C000905030509000000010101010101010109
:10547C0000000000000037494949490000000000C5
:10548C0000070909090900000000000006090909C4
:10549C0006000000000000070909090701010000CF
:1054AC0000000E0909090E080800000000050301A0
:1054BC0001010000000000000701020407000000C9
:1054CC0000000103010101020000000000000909B5
:1054DC0009090E000000000000110A0A0A0400006D
:1054EC00000000004949553622000000000000056C
:1054FC0002020205000000000000110A0A0A04045E
:10550C000200000000070402010700000004020270
:10551C000202010202020400020202020202020260
:10552C000202000102020202040202020100000057
:10553C000000261900000000000000030303030311
:03554C000000005C
:10554F00000000000000000000000000000000004C
:10555F00000000000000000000000000000000003C
:10556F000000000000000000003C1C0C0C0C0CFCA8
:10557F00FCFC0C0C0C0C1C3C00040CFCFCFC0C0C80
:10558F000C0C0C8C0C1C3C00E0F0381C0C0C0C0CA4
:10559F001C3870F800000000000000000000000040
:1055AF0000000000000000000000000000000000EC
:1055BF0000000000000000000000000000000000DC
:1055CF0000000000000000000000000000000000CC
:1055DF0000000000000000000000000000000000BC
:1055EF00000000000000000000000000000080FF2D
:1055FF00FFFF800000000000000080FFFFFF83839B
:10560F008383838780C0E0003F7FE0C080808080FD
:10561F0080C0F078000000000000000000000000D3
:10562F00000000000000000000000000000000006B
:10563F00000000000000000000000000000000005B
:10564F00000000000000000000000000000000004B
:10565F00000000000000000000000000000000003B
:10566F000000000000000000000000000001010128
:10567F000101010100000000000101010101010110
:10568F0001010101010101000000000101010101FF
:10569F0001010000000000000000000000000000F9
:1056AF0000000000000000000000000000000000EB
:1056BF0000000000000000000000000000000000DB
:1056CF0000000000000000000000000000000000CB
:1056DF0000000000000000000000000000000000BB
:1059DF000000000000E0E01818989880800000E0B8
:1059EF00E098989898E0E00000F8F8606080806098
:1059FF0060F8F80000F8F8989898981818000000C8
:105A0F00000000E0E018181818E0E0000078788037
:105A1F00800000808078780000F8F898989898189F
:105A2F00180000F8F898989898606000000000003F
:105A3F000000000000000000000000000000000057
:105A4F000000000000000000000000000000000047
:105A5F000000000000070718181919070700001F9A
:105A6F001F010101011F1F00001F1F000001010086
:105A7F00001F1F00001F1F19191919181800000007
:105A8F000000000707181818180707000000000784
:105A9F000718180707000000001F1F1919191918F8
:105AAF001800001F1F010107071818000000000051
:105ABF0000000000000000000000000000000000D7
:105ACF0000000000000000000000000000000000C7
:105ADF0000000000000000000000000000000000B7
:105AEF0000000000000000000000000000000000A7
:105D6F000000000000000000000000001818666628
:105D7F00666686860000FEFE666666661818000078
:105D8F00F8F866666666F8F80000F8F80606060684
:105D9F0098980000FEFE6666666606060000000024
:105DAF0000000000000000000000000000000000E4
:105DBF0000000000000000000000000000000000D4
:105DCF0000000000000000000000000000000000C4
:105DDF0000000000000000000000000000000000B4
:105DEF00000000000000000000000000060606068C
:105DFF00E6E66161606087870000808060606060B8
:105E0F008787000080806767606081810606E6E60D
:105E1F0061616060676706060606060600000000FF
:105E2F000000000000000000000000000000000063
:105E3F000000000000000000000000000000000053
:105E4F000000000000000000000000000000000043
:105E5F000000000000000000000000000000000033
:105E6F000000000000000000000000000000000023
:105E7F007F7F06061E1E616100007F7F06060606F5
:105E8F007F7F00001F1F60606060191900007F7F17
:105E9F00666666666060000000000000000000009B
:105EAF0000000000000000000000000000000000E3
:105EBF0000000000000000000000000000000000D3
:105ECF0000000000000000000000000000000000C3
:105EDF0000000000000000000000000000000000B3
:10614F00000000000000005F0000000700070014BF
:10615F007F147F14242A7F2A12231308646236497E
:10616F005522500005030000001C2241000041226F
:10617F001C00082A1C2A0808083E08080050300096
:10618F00000808080808003030000020100804023A
:10619F003E5149453E00427F4000426151494621F0
:1061AF0041454B311814127F1027454545393C4A5C
:1061BF0049493001710905033649494936064949AC
:1061CF00291E003636000000563600000008142243
:1061DF004114141414144122140800020151090629
:1061EF00324979413E7E1111117E7F494949363E30
